{
  "contractName": "ArraysExample",
  "abi": [
    {
      "anonymous": false,
      "inputs": [
        {
          "indexed": false,
          "name": "_number",
          "type": "uint256"
        },
        {
          "indexed": false,
          "name": "_numbersLength",
          "type": "uint256"
        }
      ],
      "name": "newNumberPushed",
      "type": "event"
    },
    {
      "constant": false,
      "inputs": [],
      "name": "addUser",
      "outputs": [
        {
          "name": "",
          "type": "uint256[]"
        }
      ],
      "payable": false,
      "stateMutability": "nonpayable",
      "type": "function"
    }
  ],
  "bytecode": "0x608060405234801561001057600080fd5b506101d4806100206000396000f3006080604052600436106100405763ffffffff7c0100000000000000000000000000000000000000000000000000000000600035041663455c928c8114610045575b600080fd5b34801561005157600080fd5b5061005a6100aa565b60408051602080825283518183015283519192839290830191858101910280838360005b8381101561009657818101518382015260200161007e565b505050509050019250505060405180910390f35b60606000806100b7610189565b600080546001810180835591805260ff929092167f290decd9548b62a8d60345a988386fc84ba6bc95484008f6362f93160ef3e563909201829055604080518381526020810183905281519395509193507ff71d2a6e8677bd91824c487a6467e8c7ee1fbf36a584245ff0444e52faf8aaf692918290030190a1600080548060200260200160405190810160405280929190818152602001828054801561017d57602002820191906000526020600020905b815481526020019060010190808311610169575b50505050509250505090565b60408051428152446020820152815190819003909101902060fb9006905600a165627a7a7230582040fbb4f57786d91cefc09bc160436a93a7a2038818e5044e57c416b75dd606050029",
  "source": "pragma solidity 0.4.24;\n\n\ncontract ArraysExample {\n    event newNumberPushed(uint _number, uint _numbersLength);\n    uint[] numbers;\n\n    function addUser() public returns (uint[]) {\n        uint randomNumb = random();\n        uint length = numbers.push(randomNumb);\n        emit newNumberPushed(randomNumb, length);\n        return numbers;\n    }\n\n    function random() private view returns (uint8) {\n        return uint8(uint256(keccak256(block.timestamp, block.difficulty))%251);\n    }\n}",
  "sourcePath": "/Users/marcello/Projects/VeronaEthereumWorkshops/SmartContract/Arrays/contracts/ArraysExample.sol",
  "compiler": {
    "name": "solc",
    "version": "0.4.24+commit.e67f0147.Emscripten.clang"
  },
  "schemaVersion": "2.0.1",
  "updatedAt": "2018-11-19T18:32:17.382Z"
}