{
  "contractName": "Escrow",
  "abi": [
    {
      "inputs": [],
      "payable": false,
      "stateMutability": "nonpayable",
      "type": "constructor"
    },
    {
      "anonymous": false,
      "inputs": [
        {
          "indexed": true,
          "name": "transactionID",
          "type": "uint256"
        },
        {
          "indexed": false,
          "name": "itemPrice",
          "type": "uint256"
        },
        {
          "indexed": false,
          "name": "buyer",
          "type": "address"
        },
        {
          "indexed": false,
          "name": "seller",
          "type": "address"
        }
      ],
      "name": "transactionCreation",
      "type": "event"
    },
    {
      "anonymous": false,
      "inputs": [
        {
          "indexed": true,
          "name": "transactionID",
          "type": "uint256"
        },
        {
          "indexed": false,
          "name": "itemPrice",
          "type": "uint256"
        },
        {
          "indexed": false,
          "name": "buyer",
          "type": "address"
        },
        {
          "indexed": false,
          "name": "seller",
          "type": "address"
        },
        {
          "indexed": false,
          "name": "when",
          "type": "uint256"
        }
      ],
      "name": "transactionRefund",
      "type": "event"
    },
    {
      "anonymous": false,
      "inputs": [
        {
          "indexed": true,
          "name": "transactionID",
          "type": "uint256"
        }
      ],
      "name": "transactionComplete",
      "type": "event"
    },
    {
      "anonymous": false,
      "inputs": [
        {
          "indexed": true,
          "name": "transactionID",
          "type": "uint256"
        }
      ],
      "name": "transactionCanceled",
      "type": "event"
    },
    {
      "anonymous": false,
      "inputs": [
        {
          "indexed": true,
          "name": "transactionID",
          "type": "uint256"
        }
      ],
      "name": "buyerDeposit",
      "type": "event"
    },
    {
      "anonymous": false,
      "inputs": [
        {
          "indexed": true,
          "name": "transactionID",
          "type": "uint256"
        }
      ],
      "name": "sellerDeposit",
      "type": "event"
    },
    {
      "anonymous": false,
      "inputs": [
        {
          "indexed": true,
          "name": "transactionID",
          "type": "uint256"
        },
        {
          "indexed": false,
          "name": "seller",
          "type": "address"
        }
      ],
      "name": "itemSent",
      "type": "event"
    },
    {
      "anonymous": false,
      "inputs": [
        {
          "indexed": true,
          "name": "transactionID",
          "type": "uint256"
        },
        {
          "indexed": true,
          "name": "arbiter",
          "type": "address"
        }
      ],
      "name": "arbiterEngage",
      "type": "event"
    },
    {
      "anonymous": false,
      "inputs": [
        {
          "indexed": true,
          "name": "transactionID",
          "type": "uint256"
        },
        {
          "indexed": true,
          "name": "arbiter",
          "type": "address"
        },
        {
          "indexed": false,
          "name": "winner",
          "type": "address"
        }
      ],
      "name": "conflictSolved",
      "type": "event"
    },
    {
      "constant": false,
      "inputs": [
        {
          "name": "_buyer",
          "type": "address"
        },
        {
          "name": "_seller",
          "type": "address"
        },
        {
          "name": "_itemPrice",
          "type": "uint256"
        },
        {
          "name": "_arbiter",
          "type": "address"
        },
        {
          "name": "_refundAfterDays",
          "type": "uint256"
        }
      ],
      "name": "createNewTransaction",
      "outputs": [
        {
          "name": "",
          "type": "uint256"
        },
        {
          "name": "",
          "type": "address"
        }
      ],
      "payable": false,
      "stateMutability": "nonpayable",
      "type": "function"
    },
    {
      "constant": false,
      "inputs": [
        {
          "name": "_transactionID",
          "type": "uint256"
        }
      ],
      "name": "depositAsBuyer",
      "outputs": [],
      "payable": true,
      "stateMutability": "payable",
      "type": "function"
    },
    {
      "constant": false,
      "inputs": [
        {
          "name": "_transactionID",
          "type": "uint256"
        }
      ],
      "name": "depositAsSeller",
      "outputs": [],
      "payable": true,
      "stateMutability": "payable",
      "type": "function"
    },
    {
      "constant": false,
      "inputs": [
        {
          "name": "_transactionID",
          "type": "uint256"
        }
      ],
      "name": "cancelTransaction",
      "outputs": [],
      "payable": false,
      "stateMutability": "nonpayable",
      "type": "function"
    },
    {
      "constant": false,
      "inputs": [
        {
          "name": "_transactionID",
          "type": "uint256"
        }
      ],
      "name": "declareItemAsSent",
      "outputs": [],
      "payable": false,
      "stateMutability": "nonpayable",
      "type": "function"
    },
    {
      "constant": false,
      "inputs": [
        {
          "name": "_transactionID",
          "type": "uint256"
        }
      ],
      "name": "declareItemAsDeliveried",
      "outputs": [],
      "payable": false,
      "stateMutability": "nonpayable",
      "type": "function"
    },
    {
      "constant": false,
      "inputs": [
        {
          "name": "_transactionID",
          "type": "uint256"
        }
      ],
      "name": "askRefund",
      "outputs": [],
      "payable": false,
      "stateMutability": "nonpayable",
      "type": "function"
    },
    {
      "constant": false,
      "inputs": [
        {
          "name": "_transactionID",
          "type": "uint256"
        }
      ],
      "name": "engageArbiter",
      "outputs": [],
      "payable": false,
      "stateMutability": "nonpayable",
      "type": "function"
    },
    {
      "constant": false,
      "inputs": [
        {
          "name": "_transactionID",
          "type": "uint256"
        },
        {
          "name": "winner",
          "type": "address"
        }
      ],
      "name": "resolveConflict",
      "outputs": [],
      "payable": false,
      "stateMutability": "nonpayable",
      "type": "function"
    }
  ],
  "bytecode": "0x608060405234801561001057600080fd5b506040805161016081018252600080825260208201819052918101829052606081018290526080810182905260a0810182905260c0810182905260e081018290524261010082015261012081018290526101408101600190528154600180820180855560009485526020948590208451600890940201928355938301518282015560408301516002830180546060860151608087015160ff199283169415159490941761ff0019166101009115158202176201000060b060020a03191662010000600160a060020a03958616021790925560a0860151600386018054600160a060020a031990811692861692909217905560c08701516004808801805460e08b01519416929096169190911760a060020a60ff021916740100000000000000000000000000000000000000009215159290920291909117909355908501516005850155610120850151600685015561014085015160078501805491949093919092169190849081111561017f57fe5b02179055505050506112d9806101966000396000f3006080604052600436106100985763ffffffff7c01000000000000000000000000000000000000000000000000000000006000350416630d611645811461009d57806331d152f9146100c35780633380c0d81461011857806392ae7aa214610130578063caf2bd311461013b578063e47cad7514610153578063eb9ecb451461016b578063ec2c767314610183578063f1c811791461019b575b600080fd5b3480156100a957600080fd5b506100c1600435600160a060020a03602435166101a6565b005b3480156100cf57600080fd5b506100f7600160a060020a036004358116906024358116906044359060643516608435610510565b60408051928352600160a060020a0390911660208301528051918290030190f35b34801561012457600080fd5b506100c1600435610757565b6100c1600435610850565b34801561014757600080fd5b506100c1600435610930565b34801561015f57600080fd5b506100c1600435610b62565b34801561017757600080fd5b506100c1600435610e6b565b34801561018f57600080fd5b506100c1600435610f5c565b6100c16004356111c7565b6000805483913391839081106101b857fe5b6000918252602090912060046008909202010154600160a060020a0316146101df57600080fd5b826000818154811015156101ef57fe5b906000526020600020906008020160040160149054906101000a900460ff16151561021957600080fd5b60005484906000190181111561022e57600080fd5b848480600160a060020a031660008381548110151561024957fe5b6000918252602090912060036008909202010154600160a060020a031614806102ab575080600160a060020a031660008381548110151561028657fe5b6000918252602090912060089091020160020154620100009004600160a060020a0316145b15156102b657600080fd5b60008054889081106102c457fe5b6000918252602090912060036008909202010154600160a060020a038781169116141561039b5760008054889081106102f957fe5b600091825260208220600360089092020101548154600160a060020a03909116916108fc91600291908b90811061032c57fe5b90600052602060002090600802016001015481151561034757fe5b0460008a81548110151561035757fe5b906000526020600020906008020160010154019081150290604051600060405180830381858888f19350505050158015610395573d6000803e3d6000fd5b50610463565b60008054889081106103a957fe5b6000918252602090912060026008909202010154600160a060020a03878116620100009092041614156104635760008054889081106103e457fe5b906000526020600020906008020160020160029054906101000a9004600160a060020a0316600160a060020a03166108fc60008981548110151561042457fe5b9060005260206000209060080201600101549081150290604051600060405180830381858888f19350505050158015610461573d6000803e3d6000fd5b505b6000808881548110151561047357fe5b60009182526020909120600760089092020101805460ff1916600183600481111561049a57fe5b021790555060008054889081106104ad57fe5b60009182526020918290206004600890920201015460408051600160a060020a038a81168252915191909216928a927fcf804246c7fbb6f2d94294616094226cac3663b03b28c26fa9a1d2623a2bcdb7929081900390910190a350505050505050565b6040805161016081018252848152600285026020820152600091810182905260608101829052600160a060020a03808816608083015286811660a0830152841660c082015260e0810182905242610100820152620151808302610120820152819081906101408101600190528154600180820180855560009485526020948590208451600890940201928355938301518282015560408301516002830180546060860151608087015160ff199283169415159490941761ff00191661010091151582021775ffffffffffffffffffffffffffffffffffffffff0000191662010000600160a060020a03958616021790925560a086015160038601805473ffffffffffffffffffffffffffffffffffffffff1990811692861692909217905560c08701516004808801805460e08b01519416929096169190911774ff0000000000000000000000000000000000000000191674010000000000000000000000000000000000000000921515929092029190911790935590850151600585015561012085015160068501556101408501516007850180549194909391909216919084908111156106ba57fe5b02179055505060005460408051898152600160a060020a03808d1660208301528b1681830152905160001990920193507f8855b6cf8dda293de9ba3af9533dfa1082c1521f56860eab2c89271445b9d833925081900360600190a260008054908082811061072457fe5b906000526020600020906008020160020160029054906101000a9004600160a060020a0316915091509550959350505050565b60008054829133918390811061076957fe5b6000918252602090912060036008909202010154600160a060020a031614806107c35750600080543391908390811061079e57fe5b6000918252602090912060089091020160020154620100009004600160a060020a0316145b15156107ce57600080fd5b6000548290600019018111156107e357600080fd5b60026000848154811015156107f457fe5b60009182526020909120600760089092020101805460ff1916600183600481111561081b57fe5b021790555060405183907f7b564769e5e9f1556db7c18105248d0862969115799dd58fea6539f0b813306090600090a2505050565b60008054829133918390811061086257fe5b6000918252602090912060036008909202010154600160a060020a03161461088957600080fd5b60005482906000190181111561089e57600080fd5b826000818154811015156108ae57fe5b90600052602060002090600802016001015434101515156108ce57600080fd5b60016000858154811015156108df57fe5b60009182526020822060089190910201600201805460ff19169215159290921790915560405185917f0eb47922dabc265e5febd6c4688a7aa5713cb028e5347038eabf31262539dc9e91a250505050565b60008054829133918390811061094257fe5b6000918252602090912060036008909202010154600160a060020a0316148061099c5750600080543391908390811061097757fe5b6000918252602090912060089091020160020154620100009004600160a060020a0316145b15156109a757600080fd5b6000548290600019018111156109bc57600080fd5b826000818154811015156109cc57fe5b600091825260209091206002600890920201015460ff168015610a18575060008054829081106109f857fe5b906000526020600020906008020160020160019054906101000a900460ff165b1515610a2357600080fd5b83600081815481101515610a3357fe5b600091825260209091206008909102016004015474010000000000000000000000000000000000000000900460ff1615610a6c57600080fd5b6001600086815481101515610a7d57fe5b600091825260208220600460089092020181018054931515740100000000000000000000000000000000000000000274ff00000000000000000000000000000000000000001990941693909317909255805487908110610ad957fe5b60009182526020909120600760089092020101805460ff19166001836004811115610b0057fe5b02179055506000805486908110610b1357fe5b60009182526020822060046008909202010154604051600160a060020a039091169187917f98ceddb92b773c05b205d4ce1daef58c2a9544f3110c6cae49cbaefd1291d9879190a35050505050565b600080548291339183908110610b7457fe5b6000918252602090912060036008909202010154600160a060020a03161480610bce57506000805433919083908110610ba957fe5b6000918252602090912060089091020160020154620100009004600160a060020a0316145b1515610bd957600080fd5b600054829060001901811115610bee57600080fd5b82600081815481101515610bfe57fe5b600091825260209091206002600890920201015460ff168015610c4a57506000805482908110610c2a57fe5b906000526020600020906008020160020160019054906101000a900460ff165b1515610c5557600080fd5b6003600085815481101515610c6657fe5b60009182526020909120600760089092020101805460ff19166001836004811115610c8d57fe5b02179055506000805485908110610ca057fe5b600091825260208220600360089092020101548154600160a060020a03909116916108fc9187908110610ccf57fe5b9060005260206000209060080201600101549081150290604051600060405180830381858888f19350505050158015610d0c573d6000803e3d6000fd5b506000805485908110610d1b57fe5b906000526020600020906008020160020160029054906101000a9004600160a060020a0316600160a060020a03166108fc600086815481101515610d5b57fe5b9060005260206000209060080201600101549081150290604051600060405180830381858888f19350505050158015610d98573d6000803e3d6000fd5b50837f9a0e0a30683681d590dd07dad96d4b49306f7379b0560159244671b3a5c610ae600086815481101515610dca57fe5b906000526020600020906008020160000154600087815481101515610deb57fe5b906000526020600020906008020160020160029054906101000a9004600160a060020a0316600088815481101515610e1f57fe5b60009182526020918290206003600890920201015460408051948552600160a060020a03938416928501929092529190911682820152426060830152519081900360800190a250505050565b600080548291339183908110610e7d57fe5b6000918252602090912060036008909202010154600160a060020a031614610ea457600080fd5b81600081815481101515610eb457fe5b600091825260209091206002600890920201015460ff168015610f0057506000805482908110610ee057fe5b906000526020600020906008020160020160019054906101000a900460ff165b1515610f0b57600080fd5b600054839060001901811115610f2057600080fd5b60408051338152905185917fc9e9f1405fd34ea38e3220ffb5e7be4b3873ad366b96232e7b8386acd645a4e1919081900360200190a250505050565b600080548291339183908110610f6e57fe5b6000918252602090912060089091020160020154620100009004600160a060020a031614610f9b57600080fd5b81600081815481101515610fab57fe5b600091825260209091206002600890920201015460ff168015610ff757506000805482908110610fd757fe5b906000526020600020906008020160020160019054906101000a900460ff165b151561100257600080fd5b60005483906000190181111561101757600080fd5b6000808581548110151561102757fe5b60009182526020909120600760089092020101805460ff1916600183600481111561104e57fe5b0217905550600080548590811061106157fe5b600091825260208220600360089092020101548154600160a060020a03909116916108fc91600291908890811061109457fe5b9060005260206000209060080201600101548115156110af57fe5b046000878154811015156110bf57fe5b906000526020600020906008020160010154019081150290604051600060405180830381858888f193505050501580156110fd573d6000803e3d6000fd5b50600080548590811061110c57fe5b906000526020600020906008020160020160029054906101000a9004600160a060020a0316600160a060020a03166108fc600260008781548110151561114e57fe5b90600052602060002090600802016001015481151561116957fe5b049081150290604051600060405180830381858888f19350505050158015611195573d6000803e3d6000fd5b5060405184907f7fd075f78807c7090480f84a581a9ad6e3d56182f974ec813e22857a27d930a490600090a250505050565b6000805482913391839081106111d957fe5b6000918252602090912060089091020160020154620100009004600160a060020a03161461120657600080fd5b60005482906000190181111561121b57600080fd5b8260008181548110151561122b57fe5b906000526020600020906008020160010154341015151561124b57600080fd5b600160008581548110151561125c57fe5b60009182526020822060089190910201600201805460ff19169215159290921790915560405185917f6deba5f3267756f318057a4416b9ec9da5b03b844065d8ff0b540888c4695e7c91a2505050505600a165627a7a7230582000c3627ad1ab6036639f6c1c64dd0ad1d610bc476c77474bb5ccc9f66a0e00670029",
  "source": "pragma solidity ^0.4.23;\n\ncontract Escrow {\n    enum TxStatus { Completed, Pending, Canceled, Refunded, InConflict }\n    struct PurchaseTransaction {\n        uint itemPrice;\n        uint Deposit;\n        bool isBuyerDepositValid;\n        bool isSellerDepositValid;\n        address buyer;\n        address seller;\n        address arbiter;\n        bool isArbiterEngaged;\n        uint createdOn;\n        uint refundPossibleAfterDays;\n        TxStatus status;\n    }\n\n    event transactionCreation(uint indexed transactionID, uint itemPrice, address buyer, address seller);\n    event transactionRefund(uint indexed transactionID, uint itemPrice, address buyer, address seller, uint when);\n    event transactionComplete(uint indexed transactionID);\n    event transactionCanceled(uint indexed transactionID);\n    event buyerDeposit(uint indexed transactionID);\n    event sellerDeposit(uint indexed transactionID);\n    event itemSent(uint indexed transactionID, address seller);\n    event arbiterEngage(uint indexed transactionID, address indexed arbiter);\n    event conflictSolved(uint indexed transactionID, address indexed arbiter, address winner);\n\n    modifier transactionExists(uint _transactionID) {\n        require(transactions.length - 1 >= _transactionID);\n        _;\n    }\n\n    modifier onlyBuyer(uint _transactionID) {\n        require(transactions[_transactionID].buyer == msg.sender);\n        _;\n    }\n\n    modifier onlySeller(uint _transactionID) {\n        require(transactions[_transactionID].seller == msg.sender);\n        _;\n    }\n\n    modifier onlySellerOrBuyer(uint _transactionID) {\n        require(transactions[_transactionID].seller == msg.sender || transactions[_transactionID].buyer == msg.sender);\n        _;\n    }\n\n    modifier onlyArbiter(uint _transactionID) {\n        require(transactions[_transactionID].arbiter == msg.sender);\n        _;\n    }\n\n    modifier arbiterEngaged(uint _transactionID) {\n        require(transactions[_transactionID].isArbiterEngaged);\n        _;\n    }\n\n    modifier enoughDeposit(uint _transactionID) {\n        require(msg.value >= transactions[_transactionID].Deposit);\n        _;\n    }\n\n    modifier depositsAreValid(uint _transactionID) {\n        require(transactions[_transactionID].isBuyerDepositValid && transactions[_transactionID].isSellerDepositValid);\n        _;\n    }\n\n    modifier conflictWinnerValid(uint _transactionID, address winner) {\n        require(transactions[_transactionID].seller == winner || transactions[_transactionID].buyer == winner);\n        _;\n    }\n\n    modifier arbiterNotEngaged(uint _transactionID) {\n        require(!transactions[_transactionID].isArbiterEngaged);\n        _;\n    }\n\n    PurchaseTransaction[] transactions;\n\n    constructor() public {\n        transactions.push(PurchaseTransaction({\n            itemPrice: 0,\n            Deposit: 0 * 2,\n            isBuyerDepositValid: false,\n            isSellerDepositValid: false,\n            buyer: 0x000000000000000,\n            seller: 0x000000000000000,\n            arbiter: 0x000000000000000,\n            isArbiterEngaged: false,\n            createdOn: now,\n            refundPossibleAfterDays: 0 * 1 days,\n            status: TxStatus.Pending\n            }));\n    }\n\n    function createNewTransaction(\n        address _buyer, \n        address _seller, \n        uint _itemPrice, \n        address _arbiter, \n        uint _refundAfterDays) external returns (uint, address) \n    {\n        transactions.push(PurchaseTransaction({\n            itemPrice: _itemPrice,\n            Deposit: _itemPrice * 2,\n            isBuyerDepositValid: false,\n            isSellerDepositValid: false,\n            buyer: _buyer,\n            seller: _seller,\n            arbiter: _arbiter,\n            isArbiterEngaged: false,\n            createdOn: now,\n            refundPossibleAfterDays: _refundAfterDays * 1 days,\n            status: TxStatus.Pending\n            }));\n        emit transactionCreation(transactions.length - 1, _itemPrice, _buyer, _seller);\n        return (transactions.length, transactions[0].buyer);\n    }\n\n    function depositAsBuyer(uint _transactionID) public payable\n    onlyBuyer(_transactionID) \n    transactionExists(_transactionID)\n    enoughDeposit(_transactionID) \n    {\n        transactions[_transactionID].isBuyerDepositValid = true;\n        emit buyerDeposit(_transactionID);\n    }\n\n    function depositAsSeller(uint _transactionID) public payable\n    onlySeller(_transactionID) \n    transactionExists(_transactionID)\n    enoughDeposit(_transactionID) \n    {\n        transactions[_transactionID].isBuyerDepositValid = true;\n        emit sellerDeposit(_transactionID);\n    }\n\n    function cancelTransaction(uint _transactionID) public \n    onlySellerOrBuyer(_transactionID)\n    transactionExists(_transactionID) \n    {\n        transactions[_transactionID].status = TxStatus.Canceled;\n        emit transactionCanceled(_transactionID);\n    }\n\n    function declareItemAsSent(uint _transactionID) public \n    onlySeller(_transactionID)\n    depositsAreValid(_transactionID)\n    transactionExists(_transactionID)\n    {\n        emit itemSent(_transactionID, msg.sender);\n    }\n\n    function declareItemAsDeliveried(uint _transactionID) public \n    onlyBuyer(_transactionID)\n    depositsAreValid(_transactionID)\n    transactionExists(_transactionID)\n    {\n        transactions[_transactionID].status = TxStatus.Completed;\n        transactions[_transactionID].seller.transfer(transactions[_transactionID].Deposit + transactions[_transactionID].Deposit / 2);\n        transactions[_transactionID].buyer.transfer(transactions[_transactionID].Deposit / 2);\n        emit transactionComplete(_transactionID);\n    }\n\n    \n    function askRefund(uint _transactionID) public\n    onlySellerOrBuyer(_transactionID)\n    transactionExists(_transactionID)\n    depositsAreValid(_transactionID)\n    {\n        transactions[_transactionID].status = TxStatus.Refunded;\n        transactions[_transactionID].seller.transfer(transactions[_transactionID].Deposit);\n        transactions[_transactionID].buyer.transfer(transactions[_transactionID].Deposit);\n        emit transactionRefund(\n            _transactionID, \n            transactions[_transactionID].itemPrice,\n            transactions[_transactionID].buyer,\n            transactions[_transactionID].seller,\n            now);\n    }\n\n    function engageArbiter(uint _transactionID) public \n    onlySellerOrBuyer(_transactionID)\n    transactionExists(_transactionID)\n    depositsAreValid(_transactionID)\n    arbiterNotEngaged(_transactionID)\n    {\n        transactions[_transactionID].isArbiterEngaged = true;\n        transactions[_transactionID].status = TxStatus.InConflict;\n        emit arbiterEngage(_transactionID, transactions[_transactionID].arbiter);\n    }\n\n    function resolveConflict(uint _transactionID, address winner) public \n    onlyArbiter(_transactionID)\n    arbiterEngaged(_transactionID)\n    transactionExists(_transactionID)\n    conflictWinnerValid(_transactionID, winner)\n    {\n        if(winner == transactions[_transactionID].seller) {\n            transactions[_transactionID].seller.transfer(transactions[_transactionID].Deposit + transactions[_transactionID].Deposit / 2);\n        } else if(winner == transactions[_transactionID].buyer) {\n            transactions[_transactionID].buyer.transfer(transactions[_transactionID].Deposit);\n        }\n        transactions[_transactionID].status = TxStatus.Completed;\n        emit conflictSolved(_transactionID, transactions[_transactionID].arbiter, winner);\n    }\n\n}",
  "sourcePath": "/Users/marcello/Projects/VeronaEthereumWorkshops/SmartContract/Escrow/contracts/Escrow.sol",
  "compiler": {
    "name": "solc",
    "version": "0.4.24+commit.e67f0147.Emscripten.clang"
  },
  "schemaVersion": "2.0.1",
  "updatedAt": "2018-11-19T15:09:32.763Z"
}